{
  "contractName": "Amaranthus",
  "abi": [
    {
      "inputs": [],
      "stateMutability": "nonpayable",
      "type": "constructor"
    },
    {
      "anonymous": false,
      "inputs": [
        {
          "indexed": true,
          "internalType": "address",
          "name": "owner",
          "type": "address"
        },
        {
          "indexed": true,
          "internalType": "address",
          "name": "spender",
          "type": "address"
        },
        {
          "indexed": false,
          "internalType": "uint256",
          "name": "value",
          "type": "uint256"
        }
      ],
      "name": "Approval",
      "type": "event"
    },
    {
      "anonymous": false,
      "inputs": [
        {
          "indexed": true,
          "internalType": "address",
          "name": "from",
          "type": "address"
        },
        {
          "indexed": true,
          "internalType": "address",
          "name": "to",
          "type": "address"
        },
        {
          "indexed": false,
          "internalType": "uint256",
          "name": "value",
          "type": "uint256"
        }
      ],
      "name": "Transfer",
      "type": "event"
    },
    {
      "inputs": [
        {
          "internalType": "address",
          "name": "",
          "type": "address"
        }
      ],
      "name": "Player",
      "outputs": [
        {
          "internalType": "uint256",
          "name": "",
          "type": "uint256"
        }
      ],
      "stateMutability": "view",
      "type": "function"
    },
    {
      "inputs": [
        {
          "internalType": "uint256",
          "name": "",
          "type": "uint256"
        }
      ],
      "name": "_AddrList",
      "outputs": [
        {
          "internalType": "uint256",
          "name": "timePeriod",
          "type": "uint256"
        },
        {
          "internalType": "address",
          "name": "BlockedAddress",
          "type": "address"
        }
      ],
      "stateMutability": "view",
      "type": "function"
    },
    {
      "inputs": [
        {
          "internalType": "address",
          "name": "owner",
          "type": "address"
        },
        {
          "internalType": "address",
          "name": "spender",
          "type": "address"
        }
      ],
      "name": "allowance",
      "outputs": [
        {
          "internalType": "uint256",
          "name": "",
          "type": "uint256"
        }
      ],
      "stateMutability": "view",
      "type": "function"
    },
    {
      "inputs": [
        {
          "internalType": "address",
          "name": "spender",
          "type": "address"
        },
        {
          "internalType": "uint256",
          "name": "amount",
          "type": "uint256"
        }
      ],
      "name": "approve",
      "outputs": [
        {
          "internalType": "bool",
          "name": "",
          "type": "bool"
        }
      ],
      "stateMutability": "nonpayable",
      "type": "function"
    },
    {
      "inputs": [
        {
          "internalType": "address",
          "name": "account",
          "type": "address"
        }
      ],
      "name": "balanceOf",
      "outputs": [
        {
          "internalType": "uint256",
          "name": "",
          "type": "uint256"
        }
      ],
      "stateMutability": "view",
      "type": "function"
    },
    {
      "inputs": [],
      "name": "decimals",
      "outputs": [
        {
          "internalType": "uint8",
          "name": "",
          "type": "uint8"
        }
      ],
      "stateMutability": "view",
      "type": "function"
    },
    {
      "inputs": [
        {
          "internalType": "address",
          "name": "spender",
          "type": "address"
        },
        {
          "internalType": "uint256",
          "name": "subtractedValue",
          "type": "uint256"
        }
      ],
      "name": "decreaseAllowance",
      "outputs": [
        {
          "internalType": "bool",
          "name": "",
          "type": "bool"
        }
      ],
      "stateMutability": "nonpayable",
      "type": "function"
    },
    {
      "inputs": [
        {
          "internalType": "address",
          "name": "spender",
          "type": "address"
        },
        {
          "internalType": "uint256",
          "name": "addedValue",
          "type": "uint256"
        }
      ],
      "name": "increaseAllowance",
      "outputs": [
        {
          "internalType": "bool",
          "name": "",
          "type": "bool"
        }
      ],
      "stateMutability": "nonpayable",
      "type": "function"
    },
    {
      "inputs": [],
      "name": "initialTimestamp",
      "outputs": [
        {
          "internalType": "uint256",
          "name": "",
          "type": "uint256"
        }
      ],
      "stateMutability": "view",
      "type": "function"
    },
    {
      "inputs": [],
      "name": "name",
      "outputs": [
        {
          "internalType": "string",
          "name": "",
          "type": "string"
        }
      ],
      "stateMutability": "view",
      "type": "function"
    },
    {
      "inputs": [],
      "name": "player",
      "outputs": [
        {
          "internalType": "uint256",
          "name": "",
          "type": "uint256"
        }
      ],
      "stateMutability": "view",
      "type": "function"
    },
    {
      "inputs": [],
      "name": "symbol",
      "outputs": [
        {
          "internalType": "string",
          "name": "",
          "type": "string"
        }
      ],
      "stateMutability": "view",
      "type": "function"
    },
    {
      "inputs": [],
      "name": "timePeriod",
      "outputs": [
        {
          "internalType": "uint256",
          "name": "",
          "type": "uint256"
        }
      ],
      "stateMutability": "view",
      "type": "function"
    },
    {
      "inputs": [],
      "name": "timestampSet",
      "outputs": [
        {
          "internalType": "bool",
          "name": "",
          "type": "bool"
        }
      ],
      "stateMutability": "view",
      "type": "function"
    },
    {
      "inputs": [],
      "name": "totalSupply",
      "outputs": [
        {
          "internalType": "uint256",
          "name": "",
          "type": "uint256"
        }
      ],
      "stateMutability": "view",
      "type": "function"
    },
    {
      "inputs": [
        {
          "internalType": "address",
          "name": "to",
          "type": "address"
        },
        {
          "internalType": "uint256",
          "name": "amount",
          "type": "uint256"
        }
      ],
      "name": "transfer",
      "outputs": [
        {
          "internalType": "bool",
          "name": "",
          "type": "bool"
        }
      ],
      "stateMutability": "nonpayable",
      "type": "function"
    },
    {
      "inputs": [
        {
          "internalType": "address",
          "name": "from",
          "type": "address"
        },
        {
          "internalType": "address",
          "name": "to",
          "type": "address"
        },
        {
          "internalType": "uint256",
          "name": "amount",
          "type": "uint256"
        }
      ],
      "name": "transferFrom",
      "outputs": [
        {
          "internalType": "bool",
          "name": "",
          "type": "bool"
        }
      ],
      "stateMutability": "nonpayable",
      "type": "function"
    },
    {
      "inputs": [
        {
          "internalType": "uint256",
          "name": "_timePeriodInSeconds",
          "type": "uint256"
        }
      ],
      "name": "setAddrTimestamp",
      "outputs": [],
      "stateMutability": "nonpayable",
      "type": "function"
    },
    {
      "inputs": [
        {
          "internalType": "uint256",
          "name": "_index",
          "type": "uint256"
        }
      ],
      "name": "_exists",
      "outputs": [
        {
          "internalType": "uint256",
          "name": "",
          "type": "uint256"
        }
      ],
      "stateMutability": "view",
      "type": "function"
    },
    {
      "inputs": [],
      "name": "getPlayer",
      "outputs": [
        {
          "internalType": "uint256",
          "name": "",
          "type": "uint256"
        }
      ],
      "stateMutability": "view",
      "type": "function"
    },
    {
      "inputs": [
        {
          "internalType": "uint256",
          "name": "_index",
          "type": "uint256"
        }
      ],
      "name": "playerList",
      "outputs": [
        {
          "components": [
            {
              "internalType": "uint256",
              "name": "timePeriod",
              "type": "uint256"
            },
            {
              "internalType": "address",
              "name": "BlockedAddress",
              "type": "address"
            }
          ],
          "internalType": "struct Amaranthus.AddrInfo",
          "name": "",
          "type": "tuple"
        }
      ],
      "stateMutability": "view",
      "type": "function"
    },
    {
      "inputs": [
        {
          "internalType": "address",
          "name": "to",
          "type": "address"
        },
        {
          "internalType": "uint256",
          "name": "amount",
          "type": "uint256"
        },
        {
          "internalType": "uint256",
          "name": "index",
          "type": "uint256"
        }
      ],
      "name": "transferTimeLockedTokensAfterTimePeriod",
      "outputs": [],
      "stateMutability": "nonpayable",
      "type": "function"
    }
  ],
  "bytecode": "0x60806040526404a817c800600655600a80549050600b553480156200002357600080fd5b506040518060400160405280600a81526020017f416d6172616e74687573000000000000000000000000000000000000000000008152506040518060400160405280600381526020017f41415300000000000000000000000000000000000000000000000000000000008152508160039080519060200190620000a892919062000340565b508060049080519060200190620000c192919062000340565b5050506200010533620000d9620001b560201b60201c565b60ff16600a620000ea91906200057d565b600654620000f99190620005ce565b620001be60201b60201c565b600a6040518060400160405280600081526020013373ffffffffffffffffffffffffffffffffffffffff1681525090806001815401808255809150506001900390600052602060002090600202016000909190919091506000820151816000015560208201518160010160006101000a81548173ffffffffffffffffffffffffffffffffffffffff021916908373ffffffffffffffffffffffffffffffffffffffff1602179055505050620007a1565b60006012905090565b600073ffffffffffffffffffffffffffffffffffffffff168273ffffffffffffffffffffffffffffffffffffffff160362000230576040517f08c379a0000000000000000000000000000000000000000000000000000000008152600401620002279062000690565b60405180910390fd5b62000244600083836200033660201b60201c565b8060026000828254620002589190620006b2565b92505081905550806000808473ffffffffffffffffffffffffffffffffffffffff1673ffffffffffffffffffffffffffffffffffffffff1681526020019081526020016000206000828254620002af9190620006b2565b925050819055508173ffffffffffffffffffffffffffffffffffffffff16600073ffffffffffffffffffffffffffffffffffffffff167fddf252ad1be2c89b69c2b068fc378daa952ba7f163c4a11628f55a4df523b3ef8360405162000316919062000720565b60405180910390a362000332600083836200033b60201b60201c565b5050565b505050565b505050565b8280546200034e906200076c565b90600052602060002090601f016020900481019282620003725760008555620003be565b82601f106200038d57805160ff1916838001178555620003be565b82800160010185558215620003be579182015b82811115620003bd578251825591602001919060010190620003a0565b5b509050620003cd9190620003d1565b5090565b5b80821115620003ec576000816000905550600101620003d2565b5090565b7f4e487b7100000000000000000000000000000000000000000000000000000000600052601160045260246000fd5b60008160011c9050919050565b6000808291508390505b60018511156200047e57808604811115620004565762000455620003f0565b5b6001851615620004665780820291505b808102905062000476856200041f565b945062000436565b94509492505050565b6000826200049957600190506200056c565b81620004a957600090506200056c565b8160018114620004c25760028114620004cd5762000503565b60019150506200056c565b60ff841115620004e257620004e1620003f0565b5b8360020a915084821115620004fc57620004fb620003f0565b5b506200056c565b5060208310610133831016604e8410600b84101617156200053d5782820a905083811115620005375762000536620003f0565b5b6200056c565b6200054c84848460016200042c565b92509050818404811115620005665762000565620003f0565b5b81810290505b9392505050565b6000819050919050565b60006200058a8262000573565b9150620005978362000573565b9250620005c67fffffffffffffffffffffffffffffffffffffffffffffffffffffffffffffffff848462000487565b905092915050565b6000620005db8262000573565b9150620005e88362000573565b9250817fffffffffffffffffffffffffffffffffffffffffffffffffffffffffffffffff0483118215151615620006245762000623620003f0565b5b828202905092915050565b600082825260208201905092915050565b7f45524332303a206d696e7420746f20746865207a65726f206164647265737300600082015250565b600062000678601f836200062f565b9150620006858262000640565b602082019050919050565b60006020820190508181036000830152620006ab8162000669565b9050919050565b6000620006bf8262000573565b9150620006cc8362000573565b9250827fffffffffffffffffffffffffffffffffffffffffffffffffffffffffffffffff03821115620007045762000703620003f0565b5b828201905092915050565b6200071a8162000573565b82525050565b60006020820190506200073760008301846200070f565b92915050565b7f4e487b7100000000000000000000000000000000000000000000000000000000600052602260045260246000fd5b600060028204905060018216806200078557607f821691505b6020821081036200079b576200079a6200073d565b5b50919050565b611caf80620007b16000396000f3fe608060405234801561001057600080fd5b50600436106101425760003560e01c806399e682eb116100b8578063d6d141711161007c578063d6d14171146103b7578063dd62ed3e146103d5578063e24ef7c014610405578063efcec4a314610421578063f8e76cc014610452578063fb81359d1461048257610142565b806399e682eb146102d95780639b69279a14610309578063a457c2d714610327578063a9059cbb14610357578063ae6d90731461038757610142565b80633308f42d1161010a5780633308f42d14610201578063395093511461021f5780633e79d1e11461024f57806348db5f891461026d57806370a082311461028b57806395d89b41146102bb57610142565b806306fdde0314610147578063095ea7b31461016557806318160ddd1461019557806323b872dd146101b3578063313ce567146101e3575b600080fd5b61014f61049e565b60405161015c9190611243565b60405180910390f35b61017f600480360381019061017a91906112fe565b610530565b60405161018c9190611359565b60405180910390f35b61019d610553565b6040516101aa9190611383565b60405180910390f35b6101cd60048036038101906101c8919061139e565b61055d565b6040516101da9190611359565b60405180910390f35b6101eb61058c565b6040516101f8919061140d565b60405180910390f35b610209610595565b6040516102169190611383565b60405180910390f35b610239600480360381019061023491906112fe565b6105e6565b6040516102469190611359565b60405180910390f35b61025761061d565b6040516102649190611383565b60405180910390f35b610275610623565b6040516102829190611383565b60405180910390f35b6102a560048036038101906102a09190611428565b610629565b6040516102b29190611383565b60405180910390f35b6102c3610671565b6040516102d09190611243565b60405180910390f35b6102f360048036038101906102ee9190611428565b610703565b6040516103009190611383565b60405180910390f35b61031161071b565b60405161031e9190611359565b60405180910390f35b610341600480360381019061033c91906112fe565b61072e565b60405161034e9190611359565b60405180910390f35b610371600480360381019061036c91906112fe565b6107a5565b60405161037e9190611359565b60405180910390f35b6103a1600480360381019061039c9190611455565b6107c8565b6040516103ae91906114cf565b60405180910390f35b6103bf610864565b6040516103cc9190611383565b60405180910390f35b6103ef60048036038101906103ea91906114ea565b61086a565b6040516103fc9190611383565b60405180910390f35b61041f600480360381019061041a9190611455565b6108f1565b005b61043b60048036038101906104369190611455565b610a37565b604051610449929190611539565b60405180910390f35b61046c60048036038101906104679190611455565b610a8b565b6040516104799190611383565b60405180910390f35b61049c60048036038101906104979190611562565b610b3c565b005b6060600380546104ad906115e4565b80601f01602080910402602001604051908101604052809291908181526020018280546104d9906115e4565b80156105265780601f106104fb57610100808354040283529160200191610526565b820191906000526020600020905b81548152906001019060200180831161050957829003601f168201915b5050505050905090565b60008061053b610c7e565b9050610548818585610c86565b600191505092915050565b6000600254905090565b600080610568610c7e565b9050610575858285610e4f565b610580858585610edb565b60019150509392505050565b60006012905090565b600080600b54036105db576040517f08c379a00000000000000000000000000000000000000000000000000000000081526004016105d290611661565b60405180910390fd5b600a80549050905090565b6000806105f1610c7e565b9050610612818585610603858961086a565b61060d91906116b0565b610c86565b600191505092915050565b60095481565b600b5481565b60008060008373ffffffffffffffffffffffffffffffffffffffff1673ffffffffffffffffffffffffffffffffffffffff168152602001908152602001600020549050919050565b606060048054610680906115e4565b80601f01602080910402602001604051908101604052809291908181526020018280546106ac906115e4565b80156106f95780601f106106ce576101008083540402835291602001916106f9565b820191906000526020600020905b8154815290600101906020018083116106dc57829003601f168201915b5050505050905090565b60056020528060005260406000206000915090505481565b600860009054906101000a900460ff1681565b600080610739610c7e565b90506000610747828661086a565b90508381101561078c576040517f08c379a000000000000000000000000000000000000000000000000000000000815260040161078390611778565b60405180910390fd5b6107998286868403610c86565b60019250505092915050565b6000806107b0610c7e565b90506107bd818585610edb565b600191505092915050565b6107d061117a565b600a82815481106107e4576107e3611798565b5b9060005260206000209060020201604051806040016040529081600082015481526020016001820160009054906101000a900473ffffffffffffffffffffffffffffffffffffffff1673ffffffffffffffffffffffffffffffffffffffff1673ffffffffffffffffffffffffffffffffffffffff16815250509050919050565b60075481565b6000600160008473ffffffffffffffffffffffffffffffffffffffff1673ffffffffffffffffffffffffffffffffffffffff16815260200190815260200160002060008373ffffffffffffffffffffffffffffffffffffffff1673ffffffffffffffffffffffffffffffffffffffff16815260200190815260200160002054905092915050565b6001600860006101000a81548160ff021916908315150217905550426007819055506109288160075461115a90919063ffffffff16565b6009819055506000339050600a604051806040016040528060095481526020018373ffffffffffffffffffffffffffffffffffffffff1681525090806001815401808255809150506001900390600052602060002090600202016000909190919091506000820151816000015560208201518160010160006101000a81548173ffffffffffffffffffffffffffffffffffffffff021916908373ffffffffffffffffffffffffffffffffffffffff1602179055505050600560003373ffffffffffffffffffffffffffffffffffffffff1673ffffffffffffffffffffffffffffffffffffffff1681526020019081526020016000206000815480929190610a2e906117c7565b91905055505050565b600a8181548110610a4757600080fd5b90600052602060002090600202016000915090508060000154908060010160009054906101000a900473ffffffffffffffffffffffffffffffffffffffff16905082565b60003373ffffffffffffffffffffffffffffffffffffffff16600a8381548110610ab857610ab7611798565b5b906000526020600020906002020160010160009054906101000a900473ffffffffffffffffffffffffffffffffffffffff1673ffffffffffffffffffffffffffffffffffffffff1603610b3257600a8281548110610b1957610b18611798565b5b9060005260206000209060020201600001549050610b37565b600090505b919050565b600073ffffffffffffffffffffffffffffffffffffffff168373ffffffffffffffffffffffffffffffffffffffff1603610bab576040517f08c379a0000000000000000000000000000000000000000000000000000000008152600401610ba290611881565b60405180910390fd5b3373ffffffffffffffffffffffffffffffffffffffff168373ffffffffffffffffffffffffffffffffffffffff1603610c19576040517f08c379a0000000000000000000000000000000000000000000000000000000008152600401610c1090611913565b60405180910390fd5b610c2281610a8b565b421015610c64576040517f08c379a0000000000000000000000000000000000000000000000000000000008152600401610c5b906119a5565b60405180910390fd5b610c6e83836107a5565b50610c7960f06108f1565b505050565b600033905090565b600073ffffffffffffffffffffffffffffffffffffffff168373ffffffffffffffffffffffffffffffffffffffff1603610cf5576040517f08c379a0000000000000000000000000000000000000000000000000000000008152600401610cec90611a37565b60405180910390fd5b600073ffffffffffffffffffffffffffffffffffffffff168273ffffffffffffffffffffffffffffffffffffffff1603610d64576040517f08c379a0000000000000000000000000000000000000000000000000000000008152600401610d5b90611ac9565b60405180910390fd5b80600160008573ffffffffffffffffffffffffffffffffffffffff1673ffffffffffffffffffffffffffffffffffffffff16815260200190815260200160002060008473ffffffffffffffffffffffffffffffffffffffff1673ffffffffffffffffffffffffffffffffffffffff168152602001908152602001600020819055508173ffffffffffffffffffffffffffffffffffffffff168373ffffffffffffffffffffffffffffffffffffffff167f8c5be1e5ebec7d5bd14f71427d1e84f3dd0314c0f7b2291e5b200ac8c7c3b92583604051610e429190611383565b60405180910390a3505050565b6000610e5b848461086a565b90507fffffffffffffffffffffffffffffffffffffffffffffffffffffffffffffffff8114610ed55781811015610ec7576040517f08c379a0000000000000000000000000000000000000000000000000000000008152600401610ebe90611b35565b60405180910390fd5b610ed48484848403610c86565b5b50505050565b600073ffffffffffffffffffffffffffffffffffffffff168373ffffffffffffffffffffffffffffffffffffffff1603610f4a576040517f08c379a0000000000000000000000000000000000000000000000000000000008152600401610f4190611bc7565b60405180910390fd5b600073ffffffffffffffffffffffffffffffffffffffff168273ffffffffffffffffffffffffffffffffffffffff1603610fb9576040517f08c379a0000000000000000000000000000000000000000000000000000000008152600401610fb090611881565b60405180910390fd5b610fc4838383611170565b60008060008573ffffffffffffffffffffffffffffffffffffffff1673ffffffffffffffffffffffffffffffffffffffff1681526020019081526020016000205490508181101561104a576040517f08c379a000000000000000000000000000000000000000000000000000000000815260040161104190611c59565b60405180910390fd5b8181036000808673ffffffffffffffffffffffffffffffffffffffff1673ffffffffffffffffffffffffffffffffffffffff16815260200190815260200160002081905550816000808573ffffffffffffffffffffffffffffffffffffffff1673ffffffffffffffffffffffffffffffffffffffff16815260200190815260200160002060008282546110dd91906116b0565b925050819055508273ffffffffffffffffffffffffffffffffffffffff168473ffffffffffffffffffffffffffffffffffffffff167fddf252ad1be2c89b69c2b068fc378daa952ba7f163c4a11628f55a4df523b3ef846040516111419190611383565b60405180910390a3611154848484611175565b50505050565b6000818361116891906116b0565b905092915050565b505050565b505050565b604051806040016040528060008152602001600073ffffffffffffffffffffffffffffffffffffffff1681525090565b600081519050919050565b600082825260208201905092915050565b60005b838110156111e45780820151818401526020810190506111c9565b838111156111f3576000848401525b50505050565b6000601f19601f8301169050919050565b6000611215826111aa565b61121f81856111b5565b935061122f8185602086016111c6565b611238816111f9565b840191505092915050565b6000602082019050818103600083015261125d818461120a565b905092915050565b600080fd5b600073ffffffffffffffffffffffffffffffffffffffff82169050919050565b60006112958261126a565b9050919050565b6112a58161128a565b81146112b057600080fd5b50565b6000813590506112c28161129c565b92915050565b6000819050919050565b6112db816112c8565b81146112e657600080fd5b50565b6000813590506112f8816112d2565b92915050565b6000806040838503121561131557611314611265565b5b6000611323858286016112b3565b9250506020611334858286016112e9565b9150509250929050565b60008115159050919050565b6113538161133e565b82525050565b600060208201905061136e600083018461134a565b92915050565b61137d816112c8565b82525050565b60006020820190506113986000830184611374565b92915050565b6000806000606084860312156113b7576113b6611265565b5b60006113c5868287016112b3565b93505060206113d6868287016112b3565b92505060406113e7868287016112e9565b9150509250925092565b600060ff82169050919050565b611407816113f1565b82525050565b600060208201905061142260008301846113fe565b92915050565b60006020828403121561143e5761143d611265565b5b600061144c848285016112b3565b91505092915050565b60006020828403121561146b5761146a611265565b5b6000611479848285016112e9565b91505092915050565b61148b816112c8565b82525050565b61149a8161128a565b82525050565b6040820160008201516114b66000850182611482565b5060208201516114c96020850182611491565b50505050565b60006040820190506114e460008301846114a0565b92915050565b6000806040838503121561150157611500611265565b5b600061150f858286016112b3565b9250506020611520858286016112b3565b9150509250929050565b6115338161128a565b82525050565b600060408201905061154e6000830185611374565b61155b602083018461152a565b9392505050565b60008060006060848603121561157b5761157a611265565b5b6000611589868287016112b3565b935050602061159a868287016112e9565b92505060406115ab868287016112e9565b9150509250925092565b7f4e487b7100000000000000000000000000000000000000000000000000000000600052602260045260246000fd5b600060028204905060018216806115fc57607f821691505b60208210810361160f5761160e6115b5565b5b50919050565b7f6e6f626f6479206c697374656e656420616e79206d7573696300000000000000600082015250565b600061164b6019836111b5565b915061165682611615565b602082019050919050565b6000602082019050818103600083015261167a8161163e565b9050919050565b7f4e487b7100000000000000000000000000000000000000000000000000000000600052601160045260246000fd5b60006116bb826112c8565b91506116c6836112c8565b9250827fffffffffffffffffffffffffffffffffffffffffffffffffffffffffffffffff038211156116fb576116fa611681565b5b828201905092915050565b7f45524332303a2064656372656173656420616c6c6f77616e63652062656c6f7760008201527f207a65726f000000000000000000000000000000000000000000000000000000602082015250565b60006117626025836111b5565b915061176d82611706565b604082019050919050565b6000602082019050818103600083015261179181611755565b9050919050565b7f4e487b7100000000000000000000000000000000000000000000000000000000600052603260045260246000fd5b60006117d2826112c8565b91507fffffffffffffffffffffffffffffffffffffffffffffffffffffffffffffffff820361180457611803611681565b5b600182019050919050565b7f45524332303a207472616e7366657220746f20746865207a65726f206164647260008201527f6573730000000000000000000000000000000000000000000000000000000000602082015250565b600061186b6023836111b5565b91506118768261180f565b604082019050919050565b6000602082019050818103600083015261189a8161185e565b9050919050565b7f4974277320796f7572204e465420796f752063616e6e6f74206769766520796f60008201527f7520746f6b656e20000000000000000000000000000000000000000000000000602082015250565b60006118fd6028836111b5565b9150611908826118a1565b604082019050919050565b6000602082019050818103600083015261192c816118f0565b9050919050565b7f546f6b656e7320617265206f6e6c7920617661696c61626c652061667465722060008201527f636f72726563742074696d6520706572696f642068617320656c617073656400602082015250565b600061198f603f836111b5565b915061199a82611933565b604082019050919050565b600060208201905081810360008301526119be81611982565b9050919050565b7f45524332303a20617070726f76652066726f6d20746865207a65726f2061646460008201527f7265737300000000000000000000000000000000000000000000000000000000602082015250565b6000611a216024836111b5565b9150611a2c826119c5565b604082019050919050565b60006020820190508181036000830152611a5081611a14565b9050919050565b7f45524332303a20617070726f766520746f20746865207a65726f20616464726560008201527f7373000000000000000000000000000000000000000000000000000000000000602082015250565b6000611ab36022836111b5565b9150611abe82611a57565b604082019050919050565b60006020820190508181036000830152611ae281611aa6565b9050919050565b7f45524332303a20696e73756666696369656e7420616c6c6f77616e6365000000600082015250565b6000611b1f601d836111b5565b9150611b2a82611ae9565b602082019050919050565b60006020820190508181036000830152611b4e81611b12565b9050919050565b7f45524332303a207472616e736665722066726f6d20746865207a65726f20616460008201527f6472657373000000000000000000000000000000000000000000000000000000602082015250565b6000611bb16025836111b5565b9150611bbc82611b55565b604082019050919050565b60006020820190508181036000830152611be081611ba4565b9050919050565b7f45524332303a207472616e7366657220616d6f756e742065786365656473206260008201527f616c616e63650000000000000000000000000000000000000000000000000000602082015250565b6000611c436026836111b5565b9150611c4e82611be7565b604082019050919050565b60006020820190508181036000830152611c7281611c36565b905091905056fea26469706673582212200c6c16954c2b4586751c3fdd1dd643373514d0e7107fc147e930c2b0cb87be9464736f6c634300080e0033",
  "immutableReferences": {},
  "source": "// SPDX-License-Identifier: MIT\r\npragma solidity ^0.8.13;\r\n\r\nimport \"./token/ERC20/utils/SafeERC20.sol\";\r\nimport \"./token/ERC20/ERC20.sol\";\r\nimport \"./utils/math/SafeMath.sol\";\r\n\r\ncontract Amaranthus is ERC20{\r\n\r\n   using SafeMath for uint256;\r\n   using SafeERC20 for IERC20;\r\n\r\n\r\n    // mapping (uint => address) public MusicListner;\r\n    //key uint  address    musiclistener\r\n    mapping (address => uint256) public Player;\r\n    //key address uint256   musicplayer\r\n\r\n    struct AddrInfo {\r\n        uint256 timePeriod;                     // Uploaded time\r\n        address BlockedAddress;                 //BlockedAddr \r\n    }    \r\n\r\n    uint256 private MAX_TOKEN_COUNT = 20000000000;   //   \r\n    uint256 public initialTimestamp;\r\n    bool public timestampSet;\r\n    uint256 public timePeriod; \r\n\r\n    AddrInfo[] public _AddrList;//  \r\n    uint public player=_AddrList.length;\r\n\r\n    constructor() ERC20(\"Amaranthus\", \"AAS\") {\r\n        // Mint 100 tokens to msg.sender\r\n        // Similar to how\r\n        // 1 dollar = 100 cents\r\n        // 1 token = 1 * (10 ** decimals)\r\n        _mint(msg.sender, MAX_TOKEN_COUNT * 10**uint(decimals()));\r\n        _AddrList.push(AddrInfo(0,msg.sender));\r\n    }\r\n\r\n    function setAddrTimestamp(uint256 _timePeriodInSeconds) public {\r\n        timestampSet = true;\r\n        initialTimestamp = block.timestamp;\r\n        timePeriod = initialTimestamp.add(_timePeriodInSeconds);\r\n\r\n        address  BlockedAddress=msg.sender;\r\n        _AddrList.push(AddrInfo(timePeriod,BlockedAddress));\r\n        Player[msg.sender]++;\r\n    }\r\n\r\n\r\n    function _exists(uint256 _index) public view returns (uint256)\r\n    {\r\n        //deploy player 1   i=1 .\r\n        //    i    0    \r\n        if(_AddrList[_index].BlockedAddress==msg.sender)\r\n            \r\n        return \r\n            _AddrList[_index].timePeriod;\r\n        else\r\n        return 0;    \r\n\r\n    }\r\n\r\n    function getPlayer() public view\r\n    returns(uint256)\r\n    {\r\n        require(player!=0,\"nobody listened any music\");        \r\n          return _AddrList.length;   \r\n    }\r\n    //setaddr   \r\n\r\n    function playerList(uint256 _index) public view\r\n    \r\n    returns(AddrInfo memory)\r\n    {\r\n          return _AddrList[_index];\r\n        \r\n    }\r\n\r\n\r\n    function transferTimeLockedTokensAfterTimePeriod( address to, uint256 amount,uint index) public  \r\n    {      \r\n        require(to != address(0), \"ERC20: transfer to the zero address\");\r\n        require(to != msg.sender, \"It's your NFT you cannot give you token \");\r\n        // require(msg.sender == to, \"Only the token recipient can perform the unlock\");\r\n        require(block.timestamp>=_exists(index),\"Tokens are only available after correct time period has elapsed\");\r\n            transfer(to, amount);   \r\n            setAddrTimestamp(240);        \r\n    }\r\n\r\n    \r\n    //tokenid    nft  tokenid  \r\n    // tokenid        timeperiod tokenid   .\r\n    // to  token . \r\n    // timstamp  transfer . \r\n    //tokenid        \r\n    // timeperiod    \r\n    // timelock  require  else      \r\n    //    amaranth  1    .\r\n    //index storage   .\r\n    //exists    \r\n\r\n}",
  "sourcePath": "C:\\Users\\paete\\nftmusicProtoCopy\\nftmusicProtoCopy\\truffle\\contracts\\Amaranthus.sol",
  "compiler": {
    "name": "solc",
    "version": "0.8.14+commit.80d49f37.Emscripten.clang"
  },
  "schemaVersion": "3.4.11",
  "updatedAt": "2022-12-24T12:08:52.839Z",
  "devdoc": {
    "kind": "dev",
    "methods": {
      "allowance(address,address)": {
        "details": "See {IERC20-allowance}."
      },
      "approve(address,uint256)": {
        "details": "See {IERC20-approve}. NOTE: If `amount` is the maximum `uint256`, the allowance is not updated on `transferFrom`. This is semantically equivalent to an infinite approval. Requirements: - `spender` cannot be the zero address."
      },
      "balanceOf(address)": {
        "details": "See {IERC20-balanceOf}."
      },
      "decimals()": {
        "details": "Returns the number of decimals used to get its user representation. For example, if `decimals` equals `2`, a balance of `505` tokens should be displayed to a user as `5.05` (`505 / 10 ** 2`). Tokens usually opt for a value of 18, imitating the relationship between Ether and Wei. This is the value {ERC20} uses, unless this function is overridden; NOTE: This information is only used for _display_ purposes: it in no way affects any of the arithmetic of the contract, including {IERC20-balanceOf} and {IERC20-transfer}."
      },
      "decreaseAllowance(address,uint256)": {
        "details": "Atomically decreases the allowance granted to `spender` by the caller. This is an alternative to {approve} that can be used as a mitigation for problems described in {IERC20-approve}. Emits an {Approval} event indicating the updated allowance. Requirements: - `spender` cannot be the zero address. - `spender` must have allowance for the caller of at least `subtractedValue`."
      },
      "increaseAllowance(address,uint256)": {
        "details": "Atomically increases the allowance granted to `spender` by the caller. This is an alternative to {approve} that can be used as a mitigation for problems described in {IERC20-approve}. Emits an {Approval} event indicating the updated allowance. Requirements: - `spender` cannot be the zero address."
      },
      "name()": {
        "details": "Returns the name of the token."
      },
      "symbol()": {
        "details": "Returns the symbol of the token, usually a shorter version of the name."
      },
      "totalSupply()": {
        "details": "See {IERC20-totalSupply}."
      },
      "transfer(address,uint256)": {
        "details": "See {IERC20-transfer}. Requirements: - `to` cannot be the zero address. - the caller must have a balance of at least `amount`."
      },
      "transferFrom(address,address,uint256)": {
        "details": "See {IERC20-transferFrom}. Emits an {Approval} event indicating the updated allowance. This is not required by the EIP. See the note at the beginning of {ERC20}. NOTE: Does not update the allowance if the current allowance is the maximum `uint256`. Requirements: - `from` and `to` cannot be the zero address. - `from` must have a balance of at least `amount`. - the caller must have allowance for ``from``'s tokens of at least `amount`."
      }
    },
    "version": 1
  },
  "userdoc": {
    "kind": "user",
    "methods": {},
    "version": 1
  }
}